{
  "_format": "hh-sol-artifact-1",
  "contractName": "MtDemo",
  "sourceName": "contracts/MtDemo.sol",
  "abi": [
    {
      "inputs": [],
      "stateMutability": "nonpayable",
      "type": "constructor"
    },
    {
      "inputs": [
        {
          "internalType": "address",
          "name": "sender",
          "type": "address"
        },
        {
          "internalType": "uint256",
          "name": "balance",
          "type": "uint256"
        },
        {
          "internalType": "uint256",
          "name": "needed",
          "type": "uint256"
        },
        {
          "internalType": "uint256",
          "name": "tokenId",
          "type": "uint256"
        }
      ],
      "name": "ERC1155InsufficientBalance",
      "type": "error"
    },
    {
      "inputs": [
        {
          "internalType": "address",
          "name": "approver",
          "type": "address"
        }
      ],
      "name": "ERC1155InvalidApprover",
      "type": "error"
    },
    {
      "inputs": [
        {
          "internalType": "uint256",
          "name": "idsLength",
          "type": "uint256"
        },
        {
          "internalType": "uint256",
          "name": "valuesLength",
          "type": "uint256"
        }
      ],
      "name": "ERC1155InvalidArrayLength",
      "type": "error"
    },
    {
      "inputs": [
        {
          "internalType": "address",
          "name": "operator",
          "type": "address"
        }
      ],
      "name": "ERC1155InvalidOperator",
      "type": "error"
    },
    {
      "inputs": [
        {
          "internalType": "address",
          "name": "receiver",
          "type": "address"
        }
      ],
      "name": "ERC1155InvalidReceiver",
      "type": "error"
    },
    {
      "inputs": [
        {
          "internalType": "address",
          "name": "sender",
          "type": "address"
        }
      ],
      "name": "ERC1155InvalidSender",
      "type": "error"
    },
    {
      "inputs": [
        {
          "internalType": "address",
          "name": "operator",
          "type": "address"
        },
        {
          "internalType": "address",
          "name": "owner",
          "type": "address"
        }
      ],
      "name": "ERC1155MissingApprovalForAll",
      "type": "error"
    },
    {
      "inputs": [
        {
          "internalType": "uint256",
          "name": "tokenId",
          "type": "uint256"
        }
      ],
      "name": "ERC1155NonexistentToken",
      "type": "error"
    },
    {
      "inputs": [
        {
          "internalType": "address",
          "name": "owner",
          "type": "address"
        }
      ],
      "name": "OwnableInvalidOwner",
      "type": "error"
    },
    {
      "inputs": [
        {
          "internalType": "address",
          "name": "account",
          "type": "address"
        }
      ],
      "name": "OwnableUnauthorizedAccount",
      "type": "error"
    },
    {
      "anonymous": false,
      "inputs": [
        {
          "indexed": true,
          "internalType": "address",
          "name": "account",
          "type": "address"
        },
        {
          "indexed": true,
          "internalType": "address",
          "name": "operator",
          "type": "address"
        },
        {
          "indexed": false,
          "internalType": "bool",
          "name": "approved",
          "type": "bool"
        }
      ],
      "name": "ApprovalForAll",
      "type": "event"
    },
    {
      "anonymous": false,
      "inputs": [
        {
          "indexed": true,
          "internalType": "address",
          "name": "previousOwner",
          "type": "address"
        },
        {
          "indexed": true,
          "internalType": "address",
          "name": "newOwner",
          "type": "address"
        }
      ],
      "name": "OwnershipTransferred",
      "type": "event"
    },
    {
      "anonymous": false,
      "inputs": [
        {
          "indexed": true,
          "internalType": "address",
          "name": "operator",
          "type": "address"
        },
        {
          "indexed": true,
          "internalType": "address",
          "name": "from",
          "type": "address"
        },
        {
          "indexed": true,
          "internalType": "address",
          "name": "to",
          "type": "address"
        },
        {
          "indexed": false,
          "internalType": "uint256[]",
          "name": "ids",
          "type": "uint256[]"
        },
        {
          "indexed": false,
          "internalType": "uint256[]",
          "name": "values",
          "type": "uint256[]"
        }
      ],
      "name": "TransferBatch",
      "type": "event"
    },
    {
      "anonymous": false,
      "inputs": [
        {
          "indexed": true,
          "internalType": "address",
          "name": "operator",
          "type": "address"
        },
        {
          "indexed": true,
          "internalType": "address",
          "name": "from",
          "type": "address"
        },
        {
          "indexed": true,
          "internalType": "address",
          "name": "to",
          "type": "address"
        },
        {
          "indexed": false,
          "internalType": "uint256",
          "name": "id",
          "type": "uint256"
        },
        {
          "indexed": false,
          "internalType": "uint256",
          "name": "value",
          "type": "uint256"
        }
      ],
      "name": "TransferSingle",
      "type": "event"
    },
    {
      "anonymous": false,
      "inputs": [
        {
          "indexed": false,
          "internalType": "string",
          "name": "value",
          "type": "string"
        },
        {
          "indexed": true,
          "internalType": "uint256",
          "name": "id",
          "type": "uint256"
        }
      ],
      "name": "URI",
      "type": "event"
    },
    {
      "inputs": [
        {
          "internalType": "address",
          "name": "account",
          "type": "address"
        },
        {
          "internalType": "uint256",
          "name": "id",
          "type": "uint256"
        }
      ],
      "name": "balanceOf",
      "outputs": [
        {
          "internalType": "uint256",
          "name": "",
          "type": "uint256"
        }
      ],
      "stateMutability": "view",
      "type": "function"
    },
    {
      "inputs": [
        {
          "internalType": "address[]",
          "name": "accounts",
          "type": "address[]"
        },
        {
          "internalType": "uint256[]",
          "name": "ids",
          "type": "uint256[]"
        }
      ],
      "name": "balanceOfBatch",
      "outputs": [
        {
          "internalType": "uint256[]",
          "name": "",
          "type": "uint256[]"
        }
      ],
      "stateMutability": "view",
      "type": "function"
    },
    {
      "inputs": [
        {
          "internalType": "address",
          "name": "account",
          "type": "address"
        },
        {
          "internalType": "address",
          "name": "operator",
          "type": "address"
        }
      ],
      "name": "isApprovedForAll",
      "outputs": [
        {
          "internalType": "bool",
          "name": "",
          "type": "bool"
        }
      ],
      "stateMutability": "view",
      "type": "function"
    },
    {
      "inputs": [],
      "name": "maxTokenId",
      "outputs": [
        {
          "internalType": "uint256",
          "name": "",
          "type": "uint256"
        }
      ],
      "stateMutability": "view",
      "type": "function"
    },
    {
      "inputs": [
        {
          "internalType": "address",
          "name": "to",
          "type": "address"
        },
        {
          "internalType": "uint256",
          "name": "value",
          "type": "uint256"
        },
        {
          "internalType": "string",
          "name": "tokenURI",
          "type": "string"
        }
      ],
      "name": "mint",
      "outputs": [],
      "stateMutability": "nonpayable",
      "type": "function"
    },
    {
      "inputs": [
        {
          "internalType": "address",
          "name": "to",
          "type": "address"
        },
        {
          "internalType": "uint256",
          "name": "id",
          "type": "uint256"
        },
        {
          "internalType": "uint256",
          "name": "value",
          "type": "uint256"
        }
      ],
      "name": "mint2",
      "outputs": [],
      "stateMutability": "nonpayable",
      "type": "function"
    },
    {
      "inputs": [],
      "name": "owner",
      "outputs": [
        {
          "internalType": "address",
          "name": "",
          "type": "address"
        }
      ],
      "stateMutability": "view",
      "type": "function"
    },
    {
      "inputs": [],
      "name": "renounceOwnership",
      "outputs": [],
      "stateMutability": "nonpayable",
      "type": "function"
    },
    {
      "inputs": [
        {
          "internalType": "address",
          "name": "from",
          "type": "address"
        },
        {
          "internalType": "address",
          "name": "to",
          "type": "address"
        },
        {
          "internalType": "uint256[]",
          "name": "ids",
          "type": "uint256[]"
        },
        {
          "internalType": "uint256[]",
          "name": "values",
          "type": "uint256[]"
        },
        {
          "internalType": "bytes",
          "name": "data",
          "type": "bytes"
        }
      ],
      "name": "safeBatchTransferFrom",
      "outputs": [],
      "stateMutability": "nonpayable",
      "type": "function"
    },
    {
      "inputs": [
        {
          "internalType": "address",
          "name": "from",
          "type": "address"
        },
        {
          "internalType": "address",
          "name": "to",
          "type": "address"
        },
        {
          "internalType": "uint256",
          "name": "id",
          "type": "uint256"
        },
        {
          "internalType": "uint256",
          "name": "value",
          "type": "uint256"
        },
        {
          "internalType": "bytes",
          "name": "data",
          "type": "bytes"
        }
      ],
      "name": "safeTransferFrom",
      "outputs": [],
      "stateMutability": "nonpayable",
      "type": "function"
    },
    {
      "inputs": [
        {
          "internalType": "address",
          "name": "operator",
          "type": "address"
        },
        {
          "internalType": "bool",
          "name": "approved",
          "type": "bool"
        }
      ],
      "name": "setApprovalForAll",
      "outputs": [],
      "stateMutability": "nonpayable",
      "type": "function"
    },
    {
      "inputs": [
        {
          "internalType": "bytes4",
          "name": "interfaceId",
          "type": "bytes4"
        }
      ],
      "name": "supportsInterface",
      "outputs": [
        {
          "internalType": "bool",
          "name": "",
          "type": "bool"
        }
      ],
      "stateMutability": "view",
      "type": "function"
    },
    {
      "inputs": [
        {
          "internalType": "address",
          "name": "newOwner",
          "type": "address"
        }
      ],
      "name": "transferOwnership",
      "outputs": [],
      "stateMutability": "nonpayable",
      "type": "function"
    },
    {
      "inputs": [
        {
          "internalType": "uint256",
          "name": "tokenId",
          "type": "uint256"
        }
      ],
      "name": "uri",
      "outputs": [
        {
          "internalType": "string",
          "name": "",
          "type": "string"
        }
      ],
      "stateMutability": "view",
      "type": "function"
    }
  ],
  "bytecode": "0x6080604052604051806020016040528060008152506003908162000024919062000438565b503480156200003257600080fd5b5033604051806020016040528060008152506200005581620000e360201b60201c565b50600073ffffffffffffffffffffffffffffffffffffffff168173ffffffffffffffffffffffffffffffffffffffff1603620000cb5760006040517f1e4fbdf7000000000000000000000000000000000000000000000000000000008152600401620000c2919062000564565b60405180910390fd5b620000dc81620000f860201b60201c565b5062000581565b8060029081620000f4919062000438565b5050565b6000600560009054906101000a900473ffffffffffffffffffffffffffffffffffffffff16905081600560006101000a81548173ffffffffffffffffffffffffffffffffffffffff021916908373ffffffffffffffffffffffffffffffffffffffff1602179055508173ffffffffffffffffffffffffffffffffffffffff168173ffffffffffffffffffffffffffffffffffffffff167f8be0079c531659141344cd1fd0a4f28419497f9722a3daafe3b4186f6b6457e060405160405180910390a35050565b600081519050919050565b7f4e487b7100000000000000000000000000000000000000000000000000000000600052604160045260246000fd5b7f4e487b7100000000000000000000000000000000000000000000000000000000600052602260045260246000fd5b600060028204905060018216806200024057607f821691505b602082108103620002565762000255620001f8565b5b50919050565b60008190508160005260206000209050919050565b60006020601f8301049050919050565b600082821b905092915050565b600060088302620002c07fffffffffffffffffffffffffffffffffffffffffffffffffffffffffffffffff8262000281565b620002cc868362000281565b95508019841693508086168417925050509392505050565b6000819050919050565b6000819050919050565b600062000319620003136200030d84620002e4565b620002ee565b620002e4565b9050919050565b6000819050919050565b6200033583620002f8565b6200034d620003448262000320565b8484546200028e565b825550505050565b600090565b6200036462000355565b620003718184846200032a565b505050565b5b8181101562000399576200038d6000826200035a565b60018101905062000377565b5050565b601f821115620003e857620003b2816200025c565b620003bd8462000271565b81016020851015620003cd578190505b620003e5620003dc8562000271565b83018262000376565b50505b505050565b600082821c905092915050565b60006200040d60001984600802620003ed565b1980831691505092915050565b6000620004288383620003fa565b9150826002028217905092915050565b6200044382620001be565b67ffffffffffffffff8111156200045f576200045e620001c9565b5b6200046b825462000227565b620004788282856200039d565b600060209050601f831160018114620004b057600084156200049b578287015190505b620004a785826200041a565b86555062000517565b601f198416620004c0866200025c565b60005b82811015620004ea57848901518255600182019150602085019450602081019050620004c3565b868310156200050a578489015162000506601f891682620003fa565b8355505b6001600288020188555050505b505050505050565b600073ffffffffffffffffffffffffffffffffffffffff82169050919050565b60006200054c826200051f565b9050919050565b6200055e816200053f565b82525050565b60006020820190506200057b600083018462000553565b92915050565b6129fa80620005916000396000f3fe608060405234801561001057600080fd5b50600436106100e95760003560e01c806391ba317a1161008c578063d3fc986411610066578063d3fc986414610248578063e985e9c514610264578063f242432a14610294578063f2fde38b146102b0576100e9565b806391ba317a146101f2578063985965e714610210578063a22cb4651461022c576100e9565b80632eb2c2d6116100c85780632eb2c2d61461017e5780634e1273f41461019a578063715018a6146101ca5780638da5cb5b146101d4576100e9565b8062fdd58e146100ee57806301ffc9a71461011e5780630e89341c1461014e575b600080fd5b6101086004803603810190610103919061191a565b6102cc565b6040516101159190611969565b60405180910390f35b610138600480360381019061013391906119dc565b610326565b6040516101459190611a24565b60405180910390f35b61016860048036038101906101639190611a3f565b610408565b6040516101759190611afc565b60405180910390f35b61019860048036038101906101939190611d1b565b6104ed565b005b6101b460048036038101906101af9190611ead565b610595565b6040516101c19190611fe3565b60405180910390f35b6101d26106a4565b005b6101dc6106b8565b6040516101e99190612014565b60405180910390f35b6101fa6106e2565b6040516102079190611969565b60405180910390f35b61022a6004803603810190610225919061202f565b6106ec565b005b610246600480360381019061024191906120ae565b610768565b005b610262600480360381019061025d919061218f565b61077e565b005b61027e600480360381019061027991906121fe565b6107cc565b60405161028b9190611a24565b60405180910390f35b6102ae60048036038101906102a9919061223e565b610860565b005b6102ca60048036038101906102c591906122d5565b610908565b005b600080600083815260200190815260200160002060008473ffffffffffffffffffffffffffffffffffffffff1673ffffffffffffffffffffffffffffffffffffffff16815260200190815260200160002054905092915050565b60007fd9b67a26000000000000000000000000000000000000000000000000000000007bffffffffffffffffffffffffffffffffffffffffffffffffffffffff1916827bffffffffffffffffffffffffffffffffffffffffffffffffffffffff191614806103f157507f0e89341c000000000000000000000000000000000000000000000000000000007bffffffffffffffffffffffffffffffffffffffffffffffffffffffff1916827bffffffffffffffffffffffffffffffffffffffffffffffffffffffff1916145b8061040157506104008261098e565b5b9050919050565b6060600060046000848152602001908152602001600020805461042a90612331565b80601f016020809104026020016040519081016040528092919081815260200182805461045690612331565b80156104a35780601f10610478576101008083540402835291602001916104a3565b820191906000526020600020905b81548152906001019060200180831161048657829003601f168201915b5050505050905060008151116104c1576104bc836109f8565b6104e5565b6003816040516020016104d5929190612436565b6040516020818303038152906040525b915050919050565b60006104f7610a8c565b90508073ffffffffffffffffffffffffffffffffffffffff168673ffffffffffffffffffffffffffffffffffffffff161415801561053c575061053a86826107cc565b155b156105805780866040517fe237d92200000000000000000000000000000000000000000000000000000000815260040161057792919061245a565b60405180910390fd5b61058d8686868686610a94565b505050505050565b606081518351146105e157815183516040517f5b0599910000000000000000000000000000000000000000000000000000000081526004016105d8929190612483565b60405180910390fd5b6000835167ffffffffffffffff8111156105fe576105fd611b23565b5b60405190808252806020026020018201604052801561062c5781602001602082028036833780820191505090505b50905060005b8451811015610699576106696106518287610b8c90919063ffffffff16565b6106648387610ba090919063ffffffff16565b6102cc565b82828151811061067c5761067b6124ac565b5b602002602001018181525050806106929061250a565b9050610632565b508091505092915050565b6106ac610bb4565b6106b66000610c3b565b565b6000600560009054906101000a900473ffffffffffffffffffffffffffffffffffffffff16905090565b6000600654905090565b6106f4610bb4565b60006106ff83610408565b9050600081510361074757826040517f9307fe3900000000000000000000000000000000000000000000000000000000815260040161073e9190611969565b60405180910390fd5b61076284848460405180602001604052806000815250610d01565b50505050565b61077a610773610a8c565b8383610d9a565b5050565b610786610bb4565b600660008154809291906107999061250a565b91905055506107bb836006548460405180602001604052806000815250610d01565b6107c760065482610f0a565b505050565b6000600160008473ffffffffffffffffffffffffffffffffffffffff1673ffffffffffffffffffffffffffffffffffffffff16815260200190815260200160002060008373ffffffffffffffffffffffffffffffffffffffff1673ffffffffffffffffffffffffffffffffffffffff16815260200190815260200160002060009054906101000a900460ff16905092915050565b600061086a610a8c565b90508073ffffffffffffffffffffffffffffffffffffffff168673ffffffffffffffffffffffffffffffffffffffff16141580156108af57506108ad86826107cc565b155b156108f35780866040517fe237d9220000000000000000000000000000000000000000000000000000000081526004016108ea92919061245a565b60405180910390fd5b6109008686868686610f6f565b505050505050565b610910610bb4565b600073ffffffffffffffffffffffffffffffffffffffff168173ffffffffffffffffffffffffffffffffffffffff16036109825760006040517f1e4fbdf70000000000000000000000000000000000000000000000000000000081526004016109799190612014565b60405180910390fd5b61098b81610c3b565b50565b60007f01ffc9a7000000000000000000000000000000000000000000000000000000007bffffffffffffffffffffffffffffffffffffffffffffffffffffffff1916827bffffffffffffffffffffffffffffffffffffffffffffffffffffffff1916149050919050565b606060028054610a0790612331565b80601f0160208091040260200160405190810160405280929190818152602001828054610a3390612331565b8015610a805780601f10610a5557610100808354040283529160200191610a80565b820191906000526020600020905b815481529060010190602001808311610a6357829003601f168201915b50505050509050919050565b600033905090565b600073ffffffffffffffffffffffffffffffffffffffff168473ffffffffffffffffffffffffffffffffffffffff1603610b065760006040517f57f447ce000000000000000000000000000000000000000000000000000000008152600401610afd9190612014565b60405180910390fd5b600073ffffffffffffffffffffffffffffffffffffffff168573ffffffffffffffffffffffffffffffffffffffff1603610b785760006040517f01a83514000000000000000000000000000000000000000000000000000000008152600401610b6f9190612014565b60405180910390fd5b610b85858585858561107a565b5050505050565b600060208202602084010151905092915050565b600060208202602084010151905092915050565b610bbc610a8c565b73ffffffffffffffffffffffffffffffffffffffff16610bda6106b8565b73ffffffffffffffffffffffffffffffffffffffff1614610c3957610bfd610a8c565b6040517f118cdaa7000000000000000000000000000000000000000000000000000000008152600401610c309190612014565b60405180910390fd5b565b6000600560009054906101000a900473ffffffffffffffffffffffffffffffffffffffff16905081600560006101000a81548173ffffffffffffffffffffffffffffffffffffffff021916908373ffffffffffffffffffffffffffffffffffffffff1602179055508173ffffffffffffffffffffffffffffffffffffffff168173ffffffffffffffffffffffffffffffffffffffff167f8be0079c531659141344cd1fd0a4f28419497f9722a3daafe3b4186f6b6457e060405160405180910390a35050565b600073ffffffffffffffffffffffffffffffffffffffff168473ffffffffffffffffffffffffffffffffffffffff1603610d735760006040517f57f447ce000000000000000000000000000000000000000000000000000000008152600401610d6a9190612014565b60405180910390fd5b600080610d80858561112c565b91509150610d9260008784848761107a565b505050505050565b600073ffffffffffffffffffffffffffffffffffffffff168273ffffffffffffffffffffffffffffffffffffffff1603610e0c5760006040517fced3e100000000000000000000000000000000000000000000000000000000008152600401610e039190612014565b60405180910390fd5b80600160008573ffffffffffffffffffffffffffffffffffffffff1673ffffffffffffffffffffffffffffffffffffffff16815260200190815260200160002060008473ffffffffffffffffffffffffffffffffffffffff1673ffffffffffffffffffffffffffffffffffffffff16815260200190815260200160002060006101000a81548160ff0219169083151502179055508173ffffffffffffffffffffffffffffffffffffffff168373ffffffffffffffffffffffffffffffffffffffff167f17307eab39ab6107e8899845ad3d59bd9653f200f220920489ca2b5937696c3183604051610efd9190611a24565b60405180910390a3505050565b80600460008481526020019081526020016000209081610f2a91906126e9565b50817f6bb7ff708619ba0610cba295a58592e0451dee2622938c8755667688daf3529b610f5684610408565b604051610f639190611afc565b60405180910390a25050565b600073ffffffffffffffffffffffffffffffffffffffff168473ffffffffffffffffffffffffffffffffffffffff1603610fe15760006040517f57f447ce000000000000000000000000000000000000000000000000000000008152600401610fd89190612014565b60405180910390fd5b600073ffffffffffffffffffffffffffffffffffffffff168573ffffffffffffffffffffffffffffffffffffffff16036110535760006040517f01a8351400000000000000000000000000000000000000000000000000000000815260040161104a9190612014565b60405180910390fd5b600080611060858561112c565b91509150611071878784848761107a565b50505050505050565b6110868585858561115c565b600073ffffffffffffffffffffffffffffffffffffffff168473ffffffffffffffffffffffffffffffffffffffff16146111255760006110c4610a8c565b905060018451036111145760006110e5600086610ba090919063ffffffff16565b905060006110fd600086610ba090919063ffffffff16565b905061110d83898985858961150a565b5050611123565b6111228187878787876116be565b5b505b5050505050565b60608060405191506001825283602083015260408201905060018152826020820152604081016040529250929050565b80518251146111a657815181516040517f5b05999100000000000000000000000000000000000000000000000000000000815260040161119d929190612483565b60405180910390fd5b60006111b0610a8c565b905060005b83518110156113c55760006111d38286610ba090919063ffffffff16565b905060006111ea8386610ba090919063ffffffff16565b9050600073ffffffffffffffffffffffffffffffffffffffff168873ffffffffffffffffffffffffffffffffffffffff161461131757600080600084815260200190815260200160002060008a73ffffffffffffffffffffffffffffffffffffffff1673ffffffffffffffffffffffffffffffffffffffff168152602001908152602001600020549050818110156112bf57888183856040517f03dee4c50000000000000000000000000000000000000000000000000000000081526004016112b694939291906127bb565b60405180910390fd5b81810360008085815260200190815260200160002060008b73ffffffffffffffffffffffffffffffffffffffff1673ffffffffffffffffffffffffffffffffffffffff16815260200190815260200160002081905550505b600073ffffffffffffffffffffffffffffffffffffffff168773ffffffffffffffffffffffffffffffffffffffff16146113b2578060008084815260200190815260200160002060008973ffffffffffffffffffffffffffffffffffffffff1673ffffffffffffffffffffffffffffffffffffffff16815260200190815260200160002060008282546113aa9190612800565b925050819055505b5050806113be9061250a565b90506111b5565b5060018351036114845760006113e5600085610ba090919063ffffffff16565b905060006113fd600085610ba090919063ffffffff16565b90508573ffffffffffffffffffffffffffffffffffffffff168773ffffffffffffffffffffffffffffffffffffffff168473ffffffffffffffffffffffffffffffffffffffff167fc3d58168c5ae7397731d063d5bbf3d657854427343f4c083240f7aacaa2d0f628585604051611475929190612483565b60405180910390a45050611503565b8373ffffffffffffffffffffffffffffffffffffffff168573ffffffffffffffffffffffffffffffffffffffff168273ffffffffffffffffffffffffffffffffffffffff167f4a39dc06d4c0dbc64b70af90fd698a233a518aa5d07e595d983b8c0526c8f7fb86866040516114fa929190612834565b60405180910390a45b5050505050565b60008473ffffffffffffffffffffffffffffffffffffffff163b11156116b6578373ffffffffffffffffffffffffffffffffffffffff1663f23a6e6187878686866040518663ffffffff1660e01b815260040161156b9594939291906128c0565b6020604051808303816000875af19250505080156115a757506040513d601f19601f820116820180604052508101906115a4919061292f565b60015b61162b573d80600081146115d7576040519150601f19603f3d011682016040523d82523d6000602084013e6115dc565b606091505b50600081510361162357846040517f57f447ce00000000000000000000000000000000000000000000000000000000815260040161161a9190612014565b60405180910390fd5b805181602001fd5b63f23a6e6160e01b7bffffffffffffffffffffffffffffffffffffffffffffffffffffffff1916817bffffffffffffffffffffffffffffffffffffffffffffffffffffffff1916146116b457846040517f57f447ce0000000000000000000000000000000000000000000000000000000081526004016116ab9190612014565b60405180910390fd5b505b505050505050565b60008473ffffffffffffffffffffffffffffffffffffffff163b111561186a578373ffffffffffffffffffffffffffffffffffffffff1663bc197c8187878686866040518663ffffffff1660e01b815260040161171f95949392919061295c565b6020604051808303816000875af192505050801561175b57506040513d601f19601f82011682018060405250810190611758919061292f565b60015b6117df573d806000811461178b576040519150601f19603f3d011682016040523d82523d6000602084013e611790565b606091505b5060008151036117d757846040517f57f447ce0000000000000000000000000000000000000000000000000000000081526004016117ce9190612014565b60405180910390fd5b805181602001fd5b63bc197c8160e01b7bffffffffffffffffffffffffffffffffffffffffffffffffffffffff1916817bffffffffffffffffffffffffffffffffffffffffffffffffffffffff19161461186857846040517f57f447ce00000000000000000000000000000000000000000000000000000000815260040161185f9190612014565b60405180910390fd5b505b505050505050565b6000604051905090565b600080fd5b600080fd5b600073ffffffffffffffffffffffffffffffffffffffff82169050919050565b60006118b182611886565b9050919050565b6118c1816118a6565b81146118cc57600080fd5b50565b6000813590506118de816118b8565b92915050565b6000819050919050565b6118f7816118e4565b811461190257600080fd5b50565b600081359050611914816118ee565b92915050565b600080604083850312156119315761193061187c565b5b600061193f858286016118cf565b925050602061195085828601611905565b9150509250929050565b611963816118e4565b82525050565b600060208201905061197e600083018461195a565b92915050565b60007fffffffff0000000000000000000000000000000000000000000000000000000082169050919050565b6119b981611984565b81146119c457600080fd5b50565b6000813590506119d6816119b0565b92915050565b6000602082840312156119f2576119f161187c565b5b6000611a00848285016119c7565b91505092915050565b60008115159050919050565b611a1e81611a09565b82525050565b6000602082019050611a396000830184611a15565b92915050565b600060208284031215611a5557611a5461187c565b5b6000611a6384828501611905565b91505092915050565b600081519050919050565b600082825260208201905092915050565b60005b83811015611aa6578082015181840152602081019050611a8b565b60008484015250505050565b6000601f19601f8301169050919050565b6000611ace82611a6c565b611ad88185611a77565b9350611ae8818560208601611a88565b611af181611ab2565b840191505092915050565b60006020820190508181036000830152611b168184611ac3565b905092915050565b600080fd5b7f4e487b7100000000000000000000000000000000000000000000000000000000600052604160045260246000fd5b611b5b82611ab2565b810181811067ffffffffffffffff82111715611b7a57611b79611b23565b5b80604052505050565b6000611b8d611872565b9050611b998282611b52565b919050565b600067ffffffffffffffff821115611bb957611bb8611b23565b5b602082029050602081019050919050565b600080fd5b6000611be2611bdd84611b9e565b611b83565b90508083825260208201905060208402830185811115611c0557611c04611bca565b5b835b81811015611c2e5780611c1a8882611905565b845260208401935050602081019050611c07565b5050509392505050565b600082601f830112611c4d57611c4c611b1e565b5b8135611c5d848260208601611bcf565b91505092915050565b600080fd5b600067ffffffffffffffff821115611c8657611c85611b23565b5b611c8f82611ab2565b9050602081019050919050565b82818337600083830152505050565b6000611cbe611cb984611c6b565b611b83565b905082815260208101848484011115611cda57611cd9611c66565b5b611ce5848285611c9c565b509392505050565b600082601f830112611d0257611d01611b1e565b5b8135611d12848260208601611cab565b91505092915050565b600080600080600060a08688031215611d3757611d3661187c565b5b6000611d45888289016118cf565b9550506020611d56888289016118cf565b945050604086013567ffffffffffffffff811115611d7757611d76611881565b5b611d8388828901611c38565b935050606086013567ffffffffffffffff811115611da457611da3611881565b5b611db088828901611c38565b925050608086013567ffffffffffffffff811115611dd157611dd0611881565b5b611ddd88828901611ced565b9150509295509295909350565b600067ffffffffffffffff821115611e0557611e04611b23565b5b602082029050602081019050919050565b6000611e29611e2484611dea565b611b83565b90508083825260208201905060208402830185811115611e4c57611e4b611bca565b5b835b81811015611e755780611e6188826118cf565b845260208401935050602081019050611e4e565b5050509392505050565b600082601f830112611e9457611e93611b1e565b5b8135611ea4848260208601611e16565b91505092915050565b60008060408385031215611ec457611ec361187c565b5b600083013567ffffffffffffffff811115611ee257611ee1611881565b5b611eee85828601611e7f565b925050602083013567ffffffffffffffff811115611f0f57611f0e611881565b5b611f1b85828601611c38565b9150509250929050565b600081519050919050565b600082825260208201905092915050565b6000819050602082019050919050565b611f5a816118e4565b82525050565b6000611f6c8383611f51565b60208301905092915050565b6000602082019050919050565b6000611f9082611f25565b611f9a8185611f30565b9350611fa583611f41565b8060005b83811015611fd6578151611fbd8882611f60565b9750611fc883611f78565b925050600181019050611fa9565b5085935050505092915050565b60006020820190508181036000830152611ffd8184611f85565b905092915050565b61200e816118a6565b82525050565b60006020820190506120296000830184612005565b92915050565b6000806000606084860312156120485761204761187c565b5b6000612056868287016118cf565b935050602061206786828701611905565b925050604061207886828701611905565b9150509250925092565b61208b81611a09565b811461209657600080fd5b50565b6000813590506120a881612082565b92915050565b600080604083850312156120c5576120c461187c565b5b60006120d3858286016118cf565b92505060206120e485828601612099565b9150509250929050565b600067ffffffffffffffff82111561210957612108611b23565b5b61211282611ab2565b9050602081019050919050565b600061213261212d846120ee565b611b83565b90508281526020810184848401111561214e5761214d611c66565b5b612159848285611c9c565b509392505050565b600082601f83011261217657612175611b1e565b5b813561218684826020860161211f565b91505092915050565b6000806000606084860312156121a8576121a761187c565b5b60006121b6868287016118cf565b93505060206121c786828701611905565b925050604084013567ffffffffffffffff8111156121e8576121e7611881565b5b6121f486828701612161565b9150509250925092565b600080604083850312156122155761221461187c565b5b6000612223858286016118cf565b9250506020612234858286016118cf565b9150509250929050565b600080600080600060a0868803121561225a5761225961187c565b5b6000612268888289016118cf565b9550506020612279888289016118cf565b945050604061228a88828901611905565b935050606061229b88828901611905565b925050608086013567ffffffffffffffff8111156122bc576122bb611881565b5b6122c888828901611ced565b9150509295509295909350565b6000602082840312156122eb576122ea61187c565b5b60006122f9848285016118cf565b91505092915050565b7f4e487b7100000000000000000000000000000000000000000000000000000000600052602260045260246000fd5b6000600282049050600182168061234957607f821691505b60208210810361235c5761235b612302565b5b50919050565b600081905092915050565b60008190508160005260206000209050919050565b6000815461238f81612331565b6123998186612362565b945060018216600081146123b457600181146123c9576123fc565b60ff19831686528115158202860193506123fc565b6123d28561236d565b60005b838110156123f4578154818901526001820191506020810190506123d5565b838801955050505b50505092915050565b600061241082611a6c565b61241a8185612362565b935061242a818560208601611a88565b80840191505092915050565b60006124428285612382565b915061244e8284612405565b91508190509392505050565b600060408201905061246f6000830185612005565b61247c6020830184612005565b9392505050565b6000604082019050612498600083018561195a565b6124a5602083018461195a565b9392505050565b7f4e487b7100000000000000000000000000000000000000000000000000000000600052603260045260246000fd5b7f4e487b7100000000000000000000000000000000000000000000000000000000600052601160045260246000fd5b6000612515826118e4565b91507fffffffffffffffffffffffffffffffffffffffffffffffffffffffffffffffff8203612547576125466124db565b5b600182019050919050565b60006020601f8301049050919050565b600082821b905092915050565b60006008830261259f7fffffffffffffffffffffffffffffffffffffffffffffffffffffffffffffffff82612562565b6125a98683612562565b95508019841693508086168417925050509392505050565b6000819050919050565b60006125e66125e16125dc846118e4565b6125c1565b6118e4565b9050919050565b6000819050919050565b612600836125cb565b61261461260c826125ed565b84845461256f565b825550505050565b600090565b61262961261c565b6126348184846125f7565b505050565b5b818110156126585761264d600082612621565b60018101905061263a565b5050565b601f82111561269d5761266e8161236d565b61267784612552565b81016020851015612686578190505b61269a61269285612552565b830182612639565b50505b505050565b600082821c905092915050565b60006126c0600019846008026126a2565b1980831691505092915050565b60006126d983836126af565b9150826002028217905092915050565b6126f282611a6c565b67ffffffffffffffff81111561270b5761270a611b23565b5b6127158254612331565b61272082828561265c565b600060209050601f8311600181146127535760008415612741578287015190505b61274b85826126cd565b8655506127b3565b601f1984166127618661236d565b60005b8281101561278957848901518255600182019150602085019450602081019050612764565b868310156127a657848901516127a2601f8916826126af565b8355505b6001600288020188555050505b505050505050565b60006080820190506127d06000830187612005565b6127dd602083018661195a565b6127ea604083018561195a565b6127f7606083018461195a565b95945050505050565b600061280b826118e4565b9150612816836118e4565b925082820190508082111561282e5761282d6124db565b5b92915050565b6000604082019050818103600083015261284e8185611f85565b905081810360208301526128628184611f85565b90509392505050565b600081519050919050565b600082825260208201905092915050565b60006128928261286b565b61289c8185612876565b93506128ac818560208601611a88565b6128b581611ab2565b840191505092915050565b600060a0820190506128d56000830188612005565b6128e26020830187612005565b6128ef604083018661195a565b6128fc606083018561195a565b818103608083015261290e8184612887565b90509695505050505050565b600081519050612929816119b0565b92915050565b6000602082840312156129455761294461187c565b5b60006129538482850161291a565b91505092915050565b600060a0820190506129716000830188612005565b61297e6020830187612005565b81810360408301526129908186611f85565b905081810360608301526129a48185611f85565b905081810360808301526129b88184612887565b9050969550505050505056fea26469706673582212201cd5b8cea8ca49d857cf57186ab62acd9ffd255c701bfd6cb35cb42c2efd310464736f6c63430008140033",
  "linkReferences": {},
  "deployedLinkReferences": {}
}