{
  "_format": "hh-sol-artifact-1",
  "contractName": "NftDemo",
  "sourceName": "contracts/NftDemo.sol",
  "abi": [
    {
      "inputs": [
        {
          "internalType": "string",
          "name": "name",
          "type": "string"
        },
        {
          "internalType": "string",
          "name": "symbol",
          "type": "string"
        }
      ],
      "stateMutability": "nonpayable",
      "type": "constructor"
    },
    {
      "inputs": [
        {
          "internalType": "address",
          "name": "sender",
          "type": "address"
        },
        {
          "internalType": "uint256",
          "name": "tokenId",
          "type": "uint256"
        },
        {
          "internalType": "address",
          "name": "owner",
          "type": "address"
        }
      ],
      "name": "ERC721IncorrectOwner",
      "type": "error"
    },
    {
      "inputs": [
        {
          "internalType": "address",
          "name": "operator",
          "type": "address"
        },
        {
          "internalType": "uint256",
          "name": "tokenId",
          "type": "uint256"
        }
      ],
      "name": "ERC721InsufficientApproval",
      "type": "error"
    },
    {
      "inputs": [
        {
          "internalType": "address",
          "name": "approver",
          "type": "address"
        }
      ],
      "name": "ERC721InvalidApprover",
      "type": "error"
    },
    {
      "inputs": [
        {
          "internalType": "address",
          "name": "operator",
          "type": "address"
        }
      ],
      "name": "ERC721InvalidOperator",
      "type": "error"
    },
    {
      "inputs": [
        {
          "internalType": "address",
          "name": "owner",
          "type": "address"
        }
      ],
      "name": "ERC721InvalidOwner",
      "type": "error"
    },
    {
      "inputs": [
        {
          "internalType": "address",
          "name": "receiver",
          "type": "address"
        }
      ],
      "name": "ERC721InvalidReceiver",
      "type": "error"
    },
    {
      "inputs": [
        {
          "internalType": "address",
          "name": "sender",
          "type": "address"
        }
      ],
      "name": "ERC721InvalidSender",
      "type": "error"
    },
    {
      "inputs": [
        {
          "internalType": "uint256",
          "name": "tokenId",
          "type": "uint256"
        }
      ],
      "name": "ERC721NonexistentToken",
      "type": "error"
    },
    {
      "inputs": [
        {
          "internalType": "address",
          "name": "owner",
          "type": "address"
        }
      ],
      "name": "OwnableInvalidOwner",
      "type": "error"
    },
    {
      "inputs": [
        {
          "internalType": "address",
          "name": "account",
          "type": "address"
        }
      ],
      "name": "OwnableUnauthorizedAccount",
      "type": "error"
    },
    {
      "anonymous": false,
      "inputs": [
        {
          "indexed": true,
          "internalType": "address",
          "name": "owner",
          "type": "address"
        },
        {
          "indexed": true,
          "internalType": "address",
          "name": "approved",
          "type": "address"
        },
        {
          "indexed": true,
          "internalType": "uint256",
          "name": "tokenId",
          "type": "uint256"
        }
      ],
      "name": "Approval",
      "type": "event"
    },
    {
      "anonymous": false,
      "inputs": [
        {
          "indexed": true,
          "internalType": "address",
          "name": "owner",
          "type": "address"
        },
        {
          "indexed": true,
          "internalType": "address",
          "name": "operator",
          "type": "address"
        },
        {
          "indexed": false,
          "internalType": "bool",
          "name": "approved",
          "type": "bool"
        }
      ],
      "name": "ApprovalForAll",
      "type": "event"
    },
    {
      "anonymous": false,
      "inputs": [
        {
          "indexed": false,
          "internalType": "uint256",
          "name": "_fromTokenId",
          "type": "uint256"
        },
        {
          "indexed": false,
          "internalType": "uint256",
          "name": "_toTokenId",
          "type": "uint256"
        }
      ],
      "name": "BatchMetadataUpdate",
      "type": "event"
    },
    {
      "anonymous": false,
      "inputs": [
        {
          "indexed": false,
          "internalType": "uint256",
          "name": "_tokenId",
          "type": "uint256"
        }
      ],
      "name": "MetadataUpdate",
      "type": "event"
    },
    {
      "anonymous": false,
      "inputs": [
        {
          "indexed": true,
          "internalType": "address",
          "name": "previousOwner",
          "type": "address"
        },
        {
          "indexed": true,
          "internalType": "address",
          "name": "newOwner",
          "type": "address"
        }
      ],
      "name": "OwnershipTransferred",
      "type": "event"
    },
    {
      "anonymous": false,
      "inputs": [
        {
          "indexed": true,
          "internalType": "address",
          "name": "from",
          "type": "address"
        },
        {
          "indexed": true,
          "internalType": "address",
          "name": "to",
          "type": "address"
        },
        {
          "indexed": true,
          "internalType": "uint256",
          "name": "tokenId",
          "type": "uint256"
        }
      ],
      "name": "Transfer",
      "type": "event"
    },
    {
      "inputs": [
        {
          "internalType": "address",
          "name": "to",
          "type": "address"
        },
        {
          "internalType": "uint256",
          "name": "tokenId",
          "type": "uint256"
        }
      ],
      "name": "approve",
      "outputs": [],
      "stateMutability": "nonpayable",
      "type": "function"
    },
    {
      "inputs": [
        {
          "internalType": "address",
          "name": "owner",
          "type": "address"
        }
      ],
      "name": "balanceOf",
      "outputs": [
        {
          "internalType": "uint256",
          "name": "",
          "type": "uint256"
        }
      ],
      "stateMutability": "view",
      "type": "function"
    },
    {
      "inputs": [
        {
          "internalType": "uint256",
          "name": "tokenId",
          "type": "uint256"
        }
      ],
      "name": "getApproved",
      "outputs": [
        {
          "internalType": "address",
          "name": "",
          "type": "address"
        }
      ],
      "stateMutability": "view",
      "type": "function"
    },
    {
      "inputs": [
        {
          "internalType": "address",
          "name": "owner",
          "type": "address"
        },
        {
          "internalType": "address",
          "name": "operator",
          "type": "address"
        }
      ],
      "name": "isApprovedForAll",
      "outputs": [
        {
          "internalType": "bool",
          "name": "",
          "type": "bool"
        }
      ],
      "stateMutability": "view",
      "type": "function"
    },
    {
      "inputs": [
        {
          "internalType": "address",
          "name": "account",
          "type": "address"
        },
        {
          "internalType": "string",
          "name": "_tokenURI",
          "type": "string"
        }
      ],
      "name": "mint",
      "outputs": [],
      "stateMutability": "nonpayable",
      "type": "function"
    },
    {
      "inputs": [],
      "name": "name",
      "outputs": [
        {
          "internalType": "string",
          "name": "",
          "type": "string"
        }
      ],
      "stateMutability": "view",
      "type": "function"
    },
    {
      "inputs": [],
      "name": "owner",
      "outputs": [
        {
          "internalType": "address",
          "name": "",
          "type": "address"
        }
      ],
      "stateMutability": "view",
      "type": "function"
    },
    {
      "inputs": [
        {
          "internalType": "uint256",
          "name": "tokenId",
          "type": "uint256"
        }
      ],
      "name": "ownerOf",
      "outputs": [
        {
          "internalType": "address",
          "name": "",
          "type": "address"
        }
      ],
      "stateMutability": "view",
      "type": "function"
    },
    {
      "inputs": [],
      "name": "renounceOwnership",
      "outputs": [],
      "stateMutability": "nonpayable",
      "type": "function"
    },
    {
      "inputs": [
        {
          "internalType": "address",
          "name": "from",
          "type": "address"
        },
        {
          "internalType": "address",
          "name": "to",
          "type": "address"
        },
        {
          "internalType": "uint256",
          "name": "tokenId",
          "type": "uint256"
        }
      ],
      "name": "safeTransferFrom",
      "outputs": [],
      "stateMutability": "nonpayable",
      "type": "function"
    },
    {
      "inputs": [
        {
          "internalType": "address",
          "name": "from",
          "type": "address"
        },
        {
          "internalType": "address",
          "name": "to",
          "type": "address"
        },
        {
          "internalType": "uint256",
          "name": "tokenId",
          "type": "uint256"
        },
        {
          "internalType": "bytes",
          "name": "data",
          "type": "bytes"
        }
      ],
      "name": "safeTransferFrom",
      "outputs": [],
      "stateMutability": "nonpayable",
      "type": "function"
    },
    {
      "inputs": [
        {
          "internalType": "address",
          "name": "operator",
          "type": "address"
        },
        {
          "internalType": "bool",
          "name": "approved",
          "type": "bool"
        }
      ],
      "name": "setApprovalForAll",
      "outputs": [],
      "stateMutability": "nonpayable",
      "type": "function"
    },
    {
      "inputs": [
        {
          "internalType": "uint256",
          "name": "tokenId",
          "type": "uint256"
        },
        {
          "internalType": "string",
          "name": "_tokenURI",
          "type": "string"
        }
      ],
      "name": "setTokenURI",
      "outputs": [],
      "stateMutability": "nonpayable",
      "type": "function"
    },
    {
      "inputs": [
        {
          "internalType": "bytes4",
          "name": "interfaceId",
          "type": "bytes4"
        }
      ],
      "name": "supportsInterface",
      "outputs": [
        {
          "internalType": "bool",
          "name": "",
          "type": "bool"
        }
      ],
      "stateMutability": "view",
      "type": "function"
    },
    {
      "inputs": [],
      "name": "symbol",
      "outputs": [
        {
          "internalType": "string",
          "name": "",
          "type": "string"
        }
      ],
      "stateMutability": "view",
      "type": "function"
    },
    {
      "inputs": [
        {
          "internalType": "uint256",
          "name": "tokenId",
          "type": "uint256"
        }
      ],
      "name": "tokenURI",
      "outputs": [
        {
          "internalType": "string",
          "name": "",
          "type": "string"
        }
      ],
      "stateMutability": "view",
      "type": "function"
    },
    {
      "inputs": [
        {
          "internalType": "address",
          "name": "from",
          "type": "address"
        },
        {
          "internalType": "address",
          "name": "to",
          "type": "address"
        },
        {
          "internalType": "uint256",
          "name": "tokenId",
          "type": "uint256"
        }
      ],
      "name": "transferFrom",
      "outputs": [],
      "stateMutability": "nonpayable",
      "type": "function"
    },
    {
      "inputs": [
        {
          "internalType": "address",
          "name": "newOwner",
          "type": "address"
        }
      ],
      "name": "transferOwnership",
      "outputs": [],
      "stateMutability": "nonpayable",
      "type": "function"
    }
  ],
  "bytecode": "0x60806040523480156200001157600080fd5b5060405162002e6438038062002e64833981810160405281019062000037919062000348565b33828281600090816200004b919062000618565b5080600190816200005d919062000618565b505050600073ffffffffffffffffffffffffffffffffffffffff168173ffffffffffffffffffffffffffffffffffffffff1603620000d55760006040517f1e4fbdf7000000000000000000000000000000000000000000000000000000008152600401620000cc919062000744565b60405180910390fd5b620000e681620000ef60201b60201c565b50505062000761565b6000600760009054906101000a900473ffffffffffffffffffffffffffffffffffffffff16905081600760006101000a81548173ffffffffffffffffffffffffffffffffffffffff021916908373ffffffffffffffffffffffffffffffffffffffff1602179055508173ffffffffffffffffffffffffffffffffffffffff168173ffffffffffffffffffffffffffffffffffffffff167f8be0079c531659141344cd1fd0a4f28419497f9722a3daafe3b4186f6b6457e060405160405180910390a35050565b6000604051905090565b600080fd5b600080fd5b600080fd5b600080fd5b6000601f19601f8301169050919050565b7f4e487b7100000000000000000000000000000000000000000000000000000000600052604160045260246000fd5b6200021e82620001d3565b810181811067ffffffffffffffff8211171562000240576200023f620001e4565b5b80604052505050565b600062000255620001b5565b905062000263828262000213565b919050565b600067ffffffffffffffff821115620002865762000285620001e4565b5b6200029182620001d3565b9050602081019050919050565b60005b83811015620002be578082015181840152602081019050620002a1565b60008484015250505050565b6000620002e1620002db8462000268565b62000249565b9050828152602081018484840111156200030057620002ff620001ce565b5b6200030d8482856200029e565b509392505050565b600082601f8301126200032d576200032c620001c9565b5b81516200033f848260208601620002ca565b91505092915050565b60008060408385031215620003625762000361620001bf565b5b600083015167ffffffffffffffff811115620003835762000382620001c4565b5b620003918582860162000315565b925050602083015167ffffffffffffffff811115620003b557620003b4620001c4565b5b620003c38582860162000315565b9150509250929050565b600081519050919050565b7f4e487b7100000000000000000000000000000000000000000000000000000000600052602260045260246000fd5b600060028204905060018216806200042057607f821691505b602082108103620004365762000435620003d8565b5b50919050565b60008190508160005260206000209050919050565b60006020601f8301049050919050565b600082821b905092915050565b600060088302620004a07fffffffffffffffffffffffffffffffffffffffffffffffffffffffffffffffff8262000461565b620004ac868362000461565b95508019841693508086168417925050509392505050565b6000819050919050565b6000819050919050565b6000620004f9620004f3620004ed84620004c4565b620004ce565b620004c4565b9050919050565b6000819050919050565b6200051583620004d8565b6200052d620005248262000500565b8484546200046e565b825550505050565b600090565b6200054462000535565b620005518184846200050a565b505050565b5b8181101562000579576200056d6000826200053a565b60018101905062000557565b5050565b601f821115620005c85762000592816200043c565b6200059d8462000451565b81016020851015620005ad578190505b620005c5620005bc8562000451565b83018262000556565b50505b505050565b600082821c905092915050565b6000620005ed60001984600802620005cd565b1980831691505092915050565b6000620006088383620005da565b9150826002028217905092915050565b6200062382620003cd565b67ffffffffffffffff8111156200063f576200063e620001e4565b5b6200064b825462000407565b620006588282856200057d565b600060209050601f8311600181146200069057600084156200067b578287015190505b620006878582620005fa565b865550620006f7565b601f198416620006a0866200043c565b60005b82811015620006ca57848901518255600182019150602085019450602081019050620006a3565b86831015620006ea5784890151620006e6601f891682620005da565b8355505b6001600288020188555050505b505050505050565b600073ffffffffffffffffffffffffffffffffffffffff82169050919050565b60006200072c82620006ff565b9050919050565b6200073e816200071f565b82525050565b60006020820190506200075b600083018462000733565b92915050565b6126f380620007716000396000f3fe608060405234801561001057600080fd5b50600436106101165760003560e01c8063715018a6116100a2578063b88d4fde11610071578063b88d4fde146102cb578063c87b56dd146102e7578063d0def52114610317578063e985e9c514610333578063f2fde38b1461036357610116565b8063715018a6146102695780638da5cb5b1461027357806395d89b4114610291578063a22cb465146102af57610116565b8063162094c4116100e9578063162094c4146101b557806323b872dd146101d157806342842e0e146101ed5780636352211e1461020957806370a082311461023957610116565b806301ffc9a71461011b57806306fdde031461014b578063081812fc14610169578063095ea7b314610199575b600080fd5b61013560048036038101906101309190611aef565b61037f565b6040516101429190611b37565b60405180910390f35b6101536103e0565b6040516101609190611be2565b60405180910390f35b610183600480360381019061017e9190611c3a565b610472565b6040516101909190611ca8565b60405180910390f35b6101b360048036038101906101ae9190611cef565b61048e565b005b6101cf60048036038101906101ca9190611e64565b6104a4565b005b6101eb60048036038101906101e69190611ec0565b6104ba565b005b61020760048036038101906102029190611ec0565b6105bc565b005b610223600480360381019061021e9190611c3a565b6105dc565b6040516102309190611ca8565b60405180910390f35b610253600480360381019061024e9190611f13565b6105ee565b6040516102609190611f4f565b60405180910390f35b6102716106a8565b005b61027b6106bc565b6040516102889190611ca8565b60405180910390f35b6102996106e6565b6040516102a69190611be2565b60405180910390f35b6102c960048036038101906102c49190611f96565b610778565b005b6102e560048036038101906102e09190612077565b61078e565b005b61030160048036038101906102fc9190611c3a565b6107ab565b60405161030e9190611be2565b60405180910390f35b610331600480360381019061032c91906120fa565b6108be565b005b61034d60048036038101906103489190612156565b6108fa565b60405161035a9190611b37565b60405180910390f35b61037d60048036038101906103789190611f13565b61098e565b005b6000634906490660e01b7bffffffffffffffffffffffffffffffffffffffffffffffffffffffff1916827bffffffffffffffffffffffffffffffffffffffffffffffffffffffff191614806103d957506103d882610a14565b5b9050919050565b6060600080546103ef906121c5565b80601f016020809104026020016040519081016040528092919081815260200182805461041b906121c5565b80156104685780601f1061043d57610100808354040283529160200191610468565b820191906000526020600020905b81548152906001019060200180831161044b57829003601f168201915b5050505050905090565b600061047d82610af6565b5061048782610b7e565b9050919050565b6104a0828261049b610bbb565b610bc3565b5050565b6104ac610bd5565b6104b68282610c5c565b5050565b600073ffffffffffffffffffffffffffffffffffffffff168273ffffffffffffffffffffffffffffffffffffffff160361052c5760006040517f64a0ae920000000000000000000000000000000000000000000000000000000081526004016105239190611ca8565b60405180910390fd5b6000610540838361053b610bbb565b610cb8565b90508373ffffffffffffffffffffffffffffffffffffffff168173ffffffffffffffffffffffffffffffffffffffff16146105b6578382826040517f64283d7b0000000000000000000000000000000000000000000000000000000081526004016105ad939291906121f6565b60405180910390fd5b50505050565b6105d78383836040518060200160405280600081525061078e565b505050565b60006105e782610af6565b9050919050565b60008073ffffffffffffffffffffffffffffffffffffffff168273ffffffffffffffffffffffffffffffffffffffff16036106615760006040517f89c62b640000000000000000000000000000000000000000000000000000000081526004016106589190611ca8565b60405180910390fd5b600360008373ffffffffffffffffffffffffffffffffffffffff1673ffffffffffffffffffffffffffffffffffffffff168152602001908152602001600020549050919050565b6106b0610bd5565b6106ba6000610ed2565b565b6000600760009054906101000a900473ffffffffffffffffffffffffffffffffffffffff16905090565b6060600180546106f5906121c5565b80601f0160208091040260200160405190810160405280929190818152602001828054610721906121c5565b801561076e5780601f106107435761010080835404028352916020019161076e565b820191906000526020600020905b81548152906001019060200180831161075157829003601f168201915b5050505050905090565b61078a610783610bbb565b8383610f98565b5050565b6107998484846104ba565b6107a584848484611107565b50505050565b60606107b682610af6565b5060006006600084815260200190815260200160002080546107d7906121c5565b80601f0160208091040260200160405190810160405280929190818152602001828054610803906121c5565b80156108505780601f1061082557610100808354040283529160200191610850565b820191906000526020600020905b81548152906001019060200180831161083357829003601f168201915b5050505050905060006108616112be565b905060008151036108765781925050506108b9565b6000825111156108ab578082604051602001610893929190612269565b604051602081830303815290604052925050506108b9565b6108b4846112d5565b925050505b919050565b6108c6610bd5565b600860008154809291906108d9906122bc565b91905055506108ea8260085461133e565b6108f660085482610c5c565b5050565b6000600560008473ffffffffffffffffffffffffffffffffffffffff1673ffffffffffffffffffffffffffffffffffffffff16815260200190815260200160002060008373ffffffffffffffffffffffffffffffffffffffff1673ffffffffffffffffffffffffffffffffffffffff16815260200190815260200160002060009054906101000a900460ff16905092915050565b610996610bd5565b600073ffffffffffffffffffffffffffffffffffffffff168173ffffffffffffffffffffffffffffffffffffffff1603610a085760006040517f1e4fbdf70000000000000000000000000000000000000000000000000000000081526004016109ff9190611ca8565b60405180910390fd5b610a1181610ed2565b50565b60007f80ac58cd000000000000000000000000000000000000000000000000000000007bffffffffffffffffffffffffffffffffffffffffffffffffffffffff1916827bffffffffffffffffffffffffffffffffffffffffffffffffffffffff19161480610adf57507f5b5e139f000000000000000000000000000000000000000000000000000000007bffffffffffffffffffffffffffffffffffffffffffffffffffffffff1916827bffffffffffffffffffffffffffffffffffffffffffffffffffffffff1916145b80610aef5750610aee8261135c565b5b9050919050565b600080610b02836113c6565b9050600073ffffffffffffffffffffffffffffffffffffffff168173ffffffffffffffffffffffffffffffffffffffff1603610b7557826040517f7e273289000000000000000000000000000000000000000000000000000000008152600401610b6c9190611f4f565b60405180910390fd5b80915050919050565b60006004600083815260200190815260200160002060009054906101000a900473ffffffffffffffffffffffffffffffffffffffff169050919050565b600033905090565b610bd08383836001611403565b505050565b610bdd610bbb565b73ffffffffffffffffffffffffffffffffffffffff16610bfb6106bc565b73ffffffffffffffffffffffffffffffffffffffff1614610c5a57610c1e610bbb565b6040517f118cdaa7000000000000000000000000000000000000000000000000000000008152600401610c519190611ca8565b60405180910390fd5b565b80600660008481526020019081526020016000209081610c7c91906124b0565b507ff8e1a15aba9398e019f0b49df1a4fde98ee17ae345cb5f6b5e2c27f5033e8ce782604051610cac9190611f4f565b60405180910390a15050565b600080610cc4846113c6565b9050600073ffffffffffffffffffffffffffffffffffffffff168373ffffffffffffffffffffffffffffffffffffffff1614610d0657610d058184866115c8565b5b600073ffffffffffffffffffffffffffffffffffffffff168173ffffffffffffffffffffffffffffffffffffffff1614610d9757610d48600085600080611403565b6001600360008373ffffffffffffffffffffffffffffffffffffffff1673ffffffffffffffffffffffffffffffffffffffff168152602001908152602001600020600082825403925050819055505b600073ffffffffffffffffffffffffffffffffffffffff168573ffffffffffffffffffffffffffffffffffffffff1614610e1a576001600360008773ffffffffffffffffffffffffffffffffffffffff1673ffffffffffffffffffffffffffffffffffffffff168152602001908152602001600020600082825401925050819055505b846002600086815260200190815260200160002060006101000a81548173ffffffffffffffffffffffffffffffffffffffff021916908373ffffffffffffffffffffffffffffffffffffffff160217905550838573ffffffffffffffffffffffffffffffffffffffff168273ffffffffffffffffffffffffffffffffffffffff167fddf252ad1be2c89b69c2b068fc378daa952ba7f163c4a11628f55a4df523b3ef60405160405180910390a4809150509392505050565b6000600760009054906101000a900473ffffffffffffffffffffffffffffffffffffffff16905081600760006101000a81548173ffffffffffffffffffffffffffffffffffffffff021916908373ffffffffffffffffffffffffffffffffffffffff1602179055508173ffffffffffffffffffffffffffffffffffffffff168173ffffffffffffffffffffffffffffffffffffffff167f8be0079c531659141344cd1fd0a4f28419497f9722a3daafe3b4186f6b6457e060405160405180910390a35050565b600073ffffffffffffffffffffffffffffffffffffffff168273ffffffffffffffffffffffffffffffffffffffff160361100957816040517f5b08ba180000000000000000000000000000000000000000000000000000000081526004016110009190611ca8565b60405180910390fd5b80600560008573ffffffffffffffffffffffffffffffffffffffff1673ffffffffffffffffffffffffffffffffffffffff16815260200190815260200160002060008473ffffffffffffffffffffffffffffffffffffffff1673ffffffffffffffffffffffffffffffffffffffff16815260200190815260200160002060006101000a81548160ff0219169083151502179055508173ffffffffffffffffffffffffffffffffffffffff168373ffffffffffffffffffffffffffffffffffffffff167f17307eab39ab6107e8899845ad3d59bd9653f200f220920489ca2b5937696c31836040516110fa9190611b37565b60405180910390a3505050565b60008373ffffffffffffffffffffffffffffffffffffffff163b11156112b8578273ffffffffffffffffffffffffffffffffffffffff1663150b7a0261114b610bbb565b8685856040518563ffffffff1660e01b815260040161116d94939291906125d7565b6020604051808303816000875af19250505080156111a957506040513d601f19601f820116820180604052508101906111a69190612638565b60015b61122d573d80600081146111d9576040519150601f19603f3d011682016040523d82523d6000602084013e6111de565b606091505b50600081510361122557836040517f64a0ae9200000000000000000000000000000000000000000000000000000000815260040161121c9190611ca8565b60405180910390fd5b805181602001fd5b63150b7a0260e01b7bffffffffffffffffffffffffffffffffffffffffffffffffffffffff1916817bffffffffffffffffffffffffffffffffffffffffffffffffffffffff1916146112b657836040517f64a0ae920000000000000000000000000000000000000000000000000000000081526004016112ad9190611ca8565b60405180910390fd5b505b50505050565b606060405180602001604052806000815250905090565b60606112e082610af6565b5060006112eb6112be565b9050600081511161130b5760405180602001604052806000815250611336565b806113158461168c565b604051602001611326929190612269565b6040516020818303038152906040525b915050919050565b61135882826040518060200160405280600081525061175a565b5050565b60007f01ffc9a7000000000000000000000000000000000000000000000000000000007bffffffffffffffffffffffffffffffffffffffffffffffffffffffff1916827bffffffffffffffffffffffffffffffffffffffffffffffffffffffff1916149050919050565b60006002600083815260200190815260200160002060009054906101000a900473ffffffffffffffffffffffffffffffffffffffff169050919050565b808061143c5750600073ffffffffffffffffffffffffffffffffffffffff168273ffffffffffffffffffffffffffffffffffffffff1614155b1561157057600061144c84610af6565b9050600073ffffffffffffffffffffffffffffffffffffffff168373ffffffffffffffffffffffffffffffffffffffff16141580156114b757508273ffffffffffffffffffffffffffffffffffffffff168173ffffffffffffffffffffffffffffffffffffffff1614155b80156114ca57506114c881846108fa565b155b1561150c57826040517fa9fbf51f0000000000000000000000000000000000000000000000000000000081526004016115039190611ca8565b60405180910390fd5b811561156e57838573ffffffffffffffffffffffffffffffffffffffff168273ffffffffffffffffffffffffffffffffffffffff167f8c5be1e5ebec7d5bd14f71427d1e84f3dd0314c0f7b2291e5b200ac8c7c3b92560405160405180910390a45b505b836004600085815260200190815260200160002060006101000a81548173ffffffffffffffffffffffffffffffffffffffff021916908373ffffffffffffffffffffffffffffffffffffffff16021790555050505050565b6115d3838383611776565b61168757600073ffffffffffffffffffffffffffffffffffffffff168373ffffffffffffffffffffffffffffffffffffffff160361164857806040517f7e27328900000000000000000000000000000000000000000000000000000000815260040161163f9190611f4f565b60405180910390fd5b81816040517f177e802f00000000000000000000000000000000000000000000000000000000815260040161167e929190612665565b60405180910390fd5b505050565b60606000600161169b84611837565b01905060008167ffffffffffffffff8111156116ba576116b9611d39565b5b6040519080825280601f01601f1916602001820160405280156116ec5781602001600182028036833780820191505090505b509050600082602001820190505b60011561174f578080600190039150507f3031323334353637383961626364656600000000000000000000000000000000600a86061a8153600a85816117435761174261268e565b5b049450600085036116fa575b819350505050919050565b611764838361198a565b6117716000848484611107565b505050565b60008073ffffffffffffffffffffffffffffffffffffffff168373ffffffffffffffffffffffffffffffffffffffff161415801561182e57508273ffffffffffffffffffffffffffffffffffffffff168473ffffffffffffffffffffffffffffffffffffffff1614806117ef57506117ee84846108fa565b5b8061182d57508273ffffffffffffffffffffffffffffffffffffffff1661181583610b7e565b73ffffffffffffffffffffffffffffffffffffffff16145b5b90509392505050565b600080600090507a184f03e93ff9f4daa797ed6e38ed64bf6a1f0100000000000000008310611895577a184f03e93ff9f4daa797ed6e38ed64bf6a1f010000000000000000838161188b5761188a61268e565b5b0492506040810190505b6d04ee2d6d415b85acef810000000083106118d2576d04ee2d6d415b85acef810000000083816118c8576118c761268e565b5b0492506020810190505b662386f26fc10000831061190157662386f26fc1000083816118f7576118f661268e565b5b0492506010810190505b6305f5e100831061192a576305f5e10083816119205761191f61268e565b5b0492506008810190505b612710831061194f5761271083816119455761194461268e565b5b0492506004810190505b6064831061197257606483816119685761196761268e565b5b0492506002810190505b600a8310611981576001810190505b80915050919050565b600073ffffffffffffffffffffffffffffffffffffffff168273ffffffffffffffffffffffffffffffffffffffff16036119fc5760006040517f64a0ae920000000000000000000000000000000000000000000000000000000081526004016119f39190611ca8565b60405180910390fd5b6000611a0a83836000610cb8565b9050600073ffffffffffffffffffffffffffffffffffffffff168173ffffffffffffffffffffffffffffffffffffffff1614611a7e5760006040517f73c6ac6e000000000000000000000000000000000000000000000000000000008152600401611a759190611ca8565b60405180910390fd5b505050565b6000604051905090565b600080fd5b600080fd5b60007fffffffff0000000000000000000000000000000000000000000000000000000082169050919050565b611acc81611a97565b8114611ad757600080fd5b50565b600081359050611ae981611ac3565b92915050565b600060208284031215611b0557611b04611a8d565b5b6000611b1384828501611ada565b91505092915050565b60008115159050919050565b611b3181611b1c565b82525050565b6000602082019050611b4c6000830184611b28565b92915050565b600081519050919050565b600082825260208201905092915050565b60005b83811015611b8c578082015181840152602081019050611b71565b60008484015250505050565b6000601f19601f8301169050919050565b6000611bb482611b52565b611bbe8185611b5d565b9350611bce818560208601611b6e565b611bd781611b98565b840191505092915050565b60006020820190508181036000830152611bfc8184611ba9565b905092915050565b6000819050919050565b611c1781611c04565b8114611c2257600080fd5b50565b600081359050611c3481611c0e565b92915050565b600060208284031215611c5057611c4f611a8d565b5b6000611c5e84828501611c25565b91505092915050565b600073ffffffffffffffffffffffffffffffffffffffff82169050919050565b6000611c9282611c67565b9050919050565b611ca281611c87565b82525050565b6000602082019050611cbd6000830184611c99565b92915050565b611ccc81611c87565b8114611cd757600080fd5b50565b600081359050611ce981611cc3565b92915050565b60008060408385031215611d0657611d05611a8d565b5b6000611d1485828601611cda565b9250506020611d2585828601611c25565b9150509250929050565b600080fd5b600080fd5b7f4e487b7100000000000000000000000000000000000000000000000000000000600052604160045260246000fd5b611d7182611b98565b810181811067ffffffffffffffff82111715611d9057611d8f611d39565b5b80604052505050565b6000611da3611a83565b9050611daf8282611d68565b919050565b600067ffffffffffffffff821115611dcf57611dce611d39565b5b611dd882611b98565b9050602081019050919050565b82818337600083830152505050565b6000611e07611e0284611db4565b611d99565b905082815260208101848484011115611e2357611e22611d34565b5b611e2e848285611de5565b509392505050565b600082601f830112611e4b57611e4a611d2f565b5b8135611e5b848260208601611df4565b91505092915050565b60008060408385031215611e7b57611e7a611a8d565b5b6000611e8985828601611c25565b925050602083013567ffffffffffffffff811115611eaa57611ea9611a92565b5b611eb685828601611e36565b9150509250929050565b600080600060608486031215611ed957611ed8611a8d565b5b6000611ee786828701611cda565b9350506020611ef886828701611cda565b9250506040611f0986828701611c25565b9150509250925092565b600060208284031215611f2957611f28611a8d565b5b6000611f3784828501611cda565b91505092915050565b611f4981611c04565b82525050565b6000602082019050611f646000830184611f40565b92915050565b611f7381611b1c565b8114611f7e57600080fd5b50565b600081359050611f9081611f6a565b92915050565b60008060408385031215611fad57611fac611a8d565b5b6000611fbb85828601611cda565b9250506020611fcc85828601611f81565b9150509250929050565b600067ffffffffffffffff821115611ff157611ff0611d39565b5b611ffa82611b98565b9050602081019050919050565b600061201a61201584611fd6565b611d99565b90508281526020810184848401111561203657612035611d34565b5b612041848285611de5565b509392505050565b600082601f83011261205e5761205d611d2f565b5b813561206e848260208601612007565b91505092915050565b6000806000806080858703121561209157612090611a8d565b5b600061209f87828801611cda565b94505060206120b087828801611cda565b93505060406120c187828801611c25565b925050606085013567ffffffffffffffff8111156120e2576120e1611a92565b5b6120ee87828801612049565b91505092959194509250565b6000806040838503121561211157612110611a8d565b5b600061211f85828601611cda565b925050602083013567ffffffffffffffff8111156121405761213f611a92565b5b61214c85828601611e36565b9150509250929050565b6000806040838503121561216d5761216c611a8d565b5b600061217b85828601611cda565b925050602061218c85828601611cda565b9150509250929050565b7f4e487b7100000000000000000000000000000000000000000000000000000000600052602260045260246000fd5b600060028204905060018216806121dd57607f821691505b6020821081036121f0576121ef612196565b5b50919050565b600060608201905061220b6000830186611c99565b6122186020830185611f40565b6122256040830184611c99565b949350505050565b600081905092915050565b600061224382611b52565b61224d818561222d565b935061225d818560208601611b6e565b80840191505092915050565b60006122758285612238565b91506122818284612238565b91508190509392505050565b7f4e487b7100000000000000000000000000000000000000000000000000000000600052601160045260246000fd5b60006122c782611c04565b91507fffffffffffffffffffffffffffffffffffffffffffffffffffffffffffffffff82036122f9576122f861228d565b5b600182019050919050565b60008190508160005260206000209050919050565b60006020601f8301049050919050565b600082821b905092915050565b6000600883026123667fffffffffffffffffffffffffffffffffffffffffffffffffffffffffffffffff82612329565b6123708683612329565b95508019841693508086168417925050509392505050565b6000819050919050565b60006123ad6123a86123a384611c04565b612388565b611c04565b9050919050565b6000819050919050565b6123c783612392565b6123db6123d3826123b4565b848454612336565b825550505050565b600090565b6123f06123e3565b6123fb8184846123be565b505050565b5b8181101561241f576124146000826123e8565b600181019050612401565b5050565b601f8211156124645761243581612304565b61243e84612319565b8101602085101561244d578190505b61246161245985612319565b830182612400565b50505b505050565b600082821c905092915050565b600061248760001984600802612469565b1980831691505092915050565b60006124a08383612476565b9150826002028217905092915050565b6124b982611b52565b67ffffffffffffffff8111156124d2576124d1611d39565b5b6124dc82546121c5565b6124e7828285612423565b600060209050601f83116001811461251a5760008415612508578287015190505b6125128582612494565b86555061257a565b601f19841661252886612304565b60005b828110156125505784890151825560018201915060208501945060208101905061252b565b8683101561256d5784890151612569601f891682612476565b8355505b6001600288020188555050505b505050505050565b600081519050919050565b600082825260208201905092915050565b60006125a982612582565b6125b3818561258d565b93506125c3818560208601611b6e565b6125cc81611b98565b840191505092915050565b60006080820190506125ec6000830187611c99565b6125f96020830186611c99565b6126066040830185611f40565b8181036060830152612618818461259e565b905095945050505050565b60008151905061263281611ac3565b92915050565b60006020828403121561264e5761264d611a8d565b5b600061265c84828501612623565b91505092915050565b600060408201905061267a6000830185611c99565b6126876020830184611f40565b9392505050565b7f4e487b7100000000000000000000000000000000000000000000000000000000600052601260045260246000fdfea2646970667358221220d33fc69a28373576d914dc3266aa7e2e04417a4d57556f291c8b7663f5245eaf64736f6c63430008140033",
  "linkReferences": {},
  "deployedLinkReferences": {}
}